:100000000C9434000C9459000C9446000C94460057
:100010000C9446000C9446000C9446000C94460048
:100020000C9446000C9446000C9446000C94480036
:100030000C9446000C9446000C9446000C94460028
:100040000C9446000C9446000C9446000C94460018
:100050000C9446000C9446000C9446000C94460008
:100060000C9446000C94460011241FBECFEFD8E03C
:10007000DEBFCDBF21E0A0E0B1E001C01D92A23003
:10008000B207E1F70E9468000C94CB000C940000CA
:100090001F920F920FB60F9211248F93809101013E
:1000A0008F5F809301018F910F900FBE0F901F9073
:1000B00018951F920F920FB60F9211248F9381E023
:1000C000809300018F910F900FBE0F901F90189595
:1000D00084B1876084B98AB18B7F8AB98BB184601F
:1000E0008BB9E1E8F0E08081886080838081856061
:1000F000808388E09DE39093890080938800EFE6F9
:10010000F0E0808182608083E9E6F0E080818260B7
:1001100080838DB381608DBB789481E085B9109226
:10012000010180E08130B9F018F0823041F1FACF5E
:10013000909101019A30B0F3109201019091000169
:10014000992329F01092000191E095B9EBCF82E05C
:1001500085B981E0E7CF90910101933018F31092B7
:10016000010180910001882331F01092000181E0AB
:1001700085B980E0D7CF84E085B982E0D3CF909174
:1001800001019A3078F2109201011092000181E091
:0A01900085B980E0C7CFF894FFCFD7
:00000001FF
