S01B000031342E44435F4D6F746F725F436F6E74726F6C2E737265633F
S11300000C9434000C943E000C943E000C943E007E
S11300100C943E000C943E000C943E000C943E0064
S11300200C943E000C943E000C943E000C943E0054
S11300300C943E000C943E000C943E000C943E0044
S11300400C943E000C943E000C943E000C943E0034
S11300500C943E000C943E000C943E000C943E0024
S11300600C943E000C943E0011241FBECFEFD8E048
S1130070DEBFCDBF0E9465000C9472000C9400009A
S113008080E480937C0087E880937A000895ECE70D
S1130090F0E09081907F8F70892B8083EAE7F0E015
S11300A080818064808380917A0086FDFCCF80917A
S11300B078009091790008958AB180648AB983E8C0
S11300C084BD83E085BD17BC08950E9440000E9452
S11300D05C0080E00E9447009695879596958795E9
S10B00E087BDF7CFF894FFCFB0
S9030000FC
