:100000000C9434000C943E000C943E000C943E0082
:100010000C943E000C943E000C943E000C943E0068
:100020000C943E000C943E000C943E000C943E0058
:100030000C943E000C943E000C943E000C943E0048
:100040000C943E000C943E000C943E000C943E0038
:100050000C943E000C943E000C943E000C943E0028
:100060000C943E000C943E0011241FBECFEFD8E04C
:10007000DEBFCDBF0E9456000C9474000C940000AB
:1000800084B1826084B980E480937C0087E88093A7
:100090007A0082E88093800082E18093810080E290
:1000A0009EE4909387008093860008950E9440000C
:1000B000EAE7F0E080818064808380917A0086FDA9
:1000C000FCCF809178009091790088519C4F880FE7
:1000D000991F90938900809388008FE59AEE01978D
:0C00E000F1F700C00000E4CFF894FFCF5F
:00000001FF
