:100000000C9434000C9446000C9446000C9446006A
:100010000C9446000C9446000C9446000C94460048
:100020000C9446000C9446000C9446000C94480036
:100030000C9446000C9446000C9446000C94460028
:100040000C9446000C9446000C9446000C94460018
:100050000C9446000C9446000C9446000C94460008
:100060000C9446000C94460011241FBECFEFD8E03C
:10007000DEBFCDBF21E0A0E0B1E001C01D92A13004
:10008000B207E1F70E9459000C9499000C9400000B
:100090001F920F920FB60F9211248F93809100013F
:1000A0008F5F809300018F910F900FBE0F901F9074
:1000B000189584B1876084B9E1E8F0E080818860B8
:1000C000808380818560808388E09DE390938900B0
:1000D00080938800EFE6F0E08081826080837894EE
:1000E00081E085B91092000180E0813071F018F054
:1000F0008230A9F0FACF909100019A30B0F382E0FB
:1001000085B91092000181E0F0CF90910001933009
:1001100060F384E085B91092000182E0E6CF90910F
:1001200000019A3010F381E085B91092000180E05F
:06013000DCCFF894FFCFC4
:00000001FF
