:100000000C9434000C943E000C943E000C943E0082
:100010000C943E000C943E000C943E000C943E0068
:100020000C943E000C943E000C943E000C943E0058
:100030000C943E000C943E000C943E000C943E0048
:100040000C943E000C943E000C943E000C943E0038
:100050000C943E000C943E000C943E000C943E0028
:100060000C943E000C943E0011241FBECFEFD8E04C
:10007000DEBFCDBF0E9440000C9486000C940000AF
:100080008AB180648AB98AB18B7F8AB98BB1846066
:100090008BB983E884BD82E085BD80E487BD81E0C3
:1000A00090E04A99FECF2FEF30E742E021503040F8
:1000B0004040E1F700C000004A99F3CF0196853037
:1000C000910514F081E090E08130910519F420E46D
:1000D00027BD10C08230910519F42FE727BD0AC053
:1000E0008330910519F42FEB27BD04C084309105AE
:1000F00009F417BC4A9BFECF2FEF30E742E02150B6
:1001000030404040E1F700C00000CBCFF894FFCF73
:00000001FF
