:100000000C9434000C9446000C9446000C9446006A
:100010000C9446000C9446000C9446000C94460048
:100020000C9446000C9446000C9446000C94460038
:100030000C9446000C9446000C9446000C94460028
:100040000C9446000C9446000C9446000C94460018
:100050000C9446000C9446000C9446000C94460008
:100060000C9446000C94460011241FBECFEFD8E03C
:10007000DEBFCDBF21E0A0E0B1E001C01D92A13004
:10008000B207E1F70E9450000C9476000C94000037
:1000900095B1907F95B995B18F70982B95B90895CA
:1000A00084B18F6084B98AB18B7F8AB98BB1846047
:1000B0008BB9809100010E9448004A99FECF80913F
:1000C00000018F5F80930001803110F010920001D9
:1000D000809100010E9448002FEF84E39CE02150B2
:1000E00080409040E1F700C00000E7CFF894FFCFD8
:00000001FF
