S01E000031302E4C4D33355F436F6F6C696E675F53797374656D2E7372656368
S11300000C9434000C943E000C943E000C943E007E
S11300100C943E000C943E000C943E000C943E0064
S11300200C943E000C943E000C943E000C943E0054
S11300300C943E000C943E000C943E000C943E0044
S11300400C943E000C943E000C943E000C943E0034
S11300500C943E000C943E000C943E000C943E0024
S11300600C943E000C943E0011241FBECFEFD8E048
S1130070DEBFCDBF0E9469000C94A9000C9400005F
S11300808AB180648AB98AB18B7F8AB98BB1846062
S11300908BB983E884BD82E085BD17BC80E480937E
S11300A07C0087E880937A000895EAE7F0E0808195
S11300B08064808380917A0086FDFCCF2091780053
S11300C030917900C90199230CF40196959587958F
S11300D008950E944000C0E0D0E04A991EC02FEF6E
S11300E080E792E0215080409040E1F700C000009A
S11300F04A9913C0CD2B21F017BCC0E0D0E002C058
S1130100C1E0D0E04A9BFECF2FEF80E792E0215080
S113011080409040E1F700C00000C130D10579F47F
S11301200E9455008931910514F417BC08C0499701
S11301300A9718F484E687BD02C08FEF87BD2FEFBE
S113014081EE94E0215080409040E1F700C000002F
S1090150C4CFF894FFCFB8
S9030000FC
