:100000000C9434000C943E000C943E000C943E0082
:100010000C943E000C943E000C943E000C943E0068
:100020000C943E000C943E000C943E000C943E0058
:100030000C943E000C943E000C943E000C943E0048
:100040000C943E000C943E000C943E000C943E0038
:100050000C943E000C943E000C943E000C943E0028
:100060000C943E000C943E0011241FBECFEFD8E04C
:10007000DEBFCDBF0E9440000C945C000C940000D9
:100080008FEF84B980E090E013C021E030E0082ECB
:1000900002C0220F331F0A94E2F725B92FEF33EC89
:1000A00049E0215030404040E1F700C00000019697
:0C00B0008830910554F3E6CFF894FFCFA0
:00000001FF
