S013000031332E4C45445F556172742E73726563AF
S11300000C9434000C9449000C9449000C9449005D
S11300100C9449000C9449000C9449000C94490038
S11300200C9449000C9449000C9449000C94490028
S11300300C9449000C9449000C9449000C94490018
S11300400C9449000C9449000C9449000C94490008
S11300500C9449000C9449000C9449000C944900F8
S11300600C9449000C94490011241FBECFEFD8E032
S1130070DEBFCDBF11E0A0E0B1E0EEE5F2E002C0EA
S113008005900D92AE37B107D9F70E9488000C9401
S11300902D010C9400008AB180648AB981E884BD82
S11300A083E085BD17BC1092C50087E68093C40029
S11300B088E18093C10086E08093C2000895FC012A
S11300C007C09091C00095FFFCCF8093C600319685
S11300D080818111F6CF0895AC0120E030E010C09A
S11300E09091C0009923E4F79091C6009D3059F097
S11300F09A3049F0FA01E20FF31F90832F5F3F4FCC
S1130100261737076CF3FA01E20FF31F10820895E4
S1130110CF93DF93CDB7DEB760970FB6F894DEBF09
S11301200FBECDBF0E944B0080E091E00E945F00B3
S11301306FE070E0CE0101960E946C0089818F34DB
S113014069F49A819E3451F49B81911107C08FEF19
S113015087BD88E291E00E945F00EACF8F3479F492
S11301608A81863461F48B81863449F48C818111CF
S113017006C017BC88E391E00E945F00D9CFCE018E
S113018001960E9407019C01215031092436310552
S113019088F44FEF489F9001499F300D1124C90105
S11301A064E670E00E94DF0067BD89E491E00E948C
S11301B05F00BECF8FE591E00E945F00B9CF97FB4F
S11301C0072E16F4009407D077FD09D00E94F3009F
S11301D007FC05D03EF4909581959F4F0895709546
S11301E061957F4F0895AA1BBB1B51E107C0AA1F4D
S11301F0BB1FA617B70710F0A61BB70B881F991FC4
S11302005A95A9F780959095BC01CD010895FC01FC
S113021088279927E89421912032E9F3293010F0B6
S11302202E30C8F32B3241F02D3239F4689404C0D7
S11302300E942501820F911D219120532A30C0F381
S11302401EF4909581959F4F08957AE0979F902D85
S1110250879F802D910D11240895F894FFCFFF
S113025E53797374656D20526561647921205479E4
S113026E7065204F4E2C204F46462C206F72203046
S113027E2D3130303A0D0A004C4544206973206EFE
S113028E6F77204F4E0D0A004C4544206973206E43
S113029E6F77204F46460D0A004272696768746E86
S11302AE657373206368616E676564210D0A004986
S11302BE6E76616C696420436F6D6D616E6421208E
S11102CE54727920616761696E2E0D0A00007A
S9030000FC
