:100000000C9434000C9451000C9451000C94510049
:100010000C9451000C9451000C9451000C9451001C
:100020000C9451000C9451000C9451000C9451000C
:100030000C9451000C9451000C9451000C945100FC
:100040000C9451000C9451000C9451000C945100EC
:100050000C9451000C9451000C9451000C945100DC
:100060000C9451000C94510011241FBECFEFD8E026
:10007000DEBFCDBF11E0A0E0B1E0E6E1F1E002C0FB
:1000800005900D92A430B107D9F721E0A4E0B1E0CA
:1000900001C01D92A530B207E1F70E9455000C94F3
:1000A00089000C94000087BD08958AB180648AB9E4
:1000B0008AB18B7F8AB98BB184608BB984B5836830
:1000C00084BD85B5836085BDE0910401F0E0E0501A
:1000D000FF4F80810E9453004A99FECF8091040116
:1000E0008F5F80930401843010F010920401E0913E
:1000F0000401F0E0E050FF4F80810E9453002FEF99
:1001000084E39CE0215080409040E1F700C0000073
:06011000E3CFF894FFCFDD
:040116004080BF0066
:00000001FF
