:100000000C9434000C943E000C943E000C943E0082
:100010000C943E000C943E000C943E000C943E0068
:100020000C943E000C943E000C943E000C943E0058
:100030000C943E000C943E000C943E000C943E0048
:100040000C943E000C943E000C943E000C943E0038
:100050000C943E000C943E000C943E000C943E0028
:100060000C943E000C943E0011241FBECFEFD8E04C
:10007000DEBFCDBF0E9440000C945F000C940000D6
:1000800084B1836084B98AB18B7F8AB98BB1846073
:100090008BB985B1816085B985B18D7F85B94A9964
:1000A000FECF95B183E0892785B92FEF84E39CE0EB
:1000B000215080409040E1F700C00000F0CFF8945C
:0200C000FFCF70
:00000001FF
